:100000000C9462000C948A000C948A000C948A0070
:100010000C948A000C948A000C948A000C948A0038
:100020000C948A000C948A000C948A000C948A0028
:100030000C948A000C948A000C948A000C948A0018
:100040000C9455030C948A000C9423030C94FD0229
:100050000C948A000C948A000C948A000C948A00F8
:100060000C948A000C948A000000000024002700F1
:100070002A0000000000250028002B0000000008D6
:10008000000201000003040700000000000000005F
:1000900000000000230026002900040404040404D6
:1000A0000404020202020202030303030303010227
:1000B00004081020408001020408102001020408F6
:1000C00010205A0511241FBECFEFD8E0DEBFCDBFF0
:1000D00011E0A0E0B1E0EEECFDE002C005900D9271
:1000E000A631B107D9F721E0A6E1B1E001C01D9228
:1000F000AC3BB207E1F710E0C2E6D0E004C02197C4
:10010000FE010E94DF06C136D107C9F70E94E40351
:100110000C94E5060C940000AF92BF92CF92DF9250
:10012000EF92FF920F931F93CF93DF936C017B01AC
:100130008B01040F151FEB015E01AE18BF08C0173D
:10014000D10759F06991D601ED91FC910190F081B0
:10015000E02DC6010995892B79F7C501DF91CF9173
:100160001F910F91FF90EF90DF90CF90BF90AF90D5
:100170000895FC01538D448D252F30E0842F90E0AD
:10018000821B930B541710F0CF9608950197089592
:10019000FC01918D828D981761F0A28DAE0FBF2F5B
:1001A000B11D5D968C91928D9F5F9F73928F90E0B1
:1001B00008958FEF9FEF0895FC01918D828D981720
:1001C00031F0828DE80FF11D858D90E008958FEF5D
:1001D0009FEF0895FC01918D228D892F90E0805C26
:1001E0009F4F821B91098F73992708958FE191E0AA
:1001F0000E94EA0021E0892B09F420E0822F089573
:1002000080E090E0892B29F00E94F60081110C9487
:1002100000000895FC01A48DA80FB92FB11DA35AA9
:10022000BF4F2C91848D90E001968F739927848F16
:10023000A689B7892C93A089B1898C918370806439
:100240008C93938D848D981306C00288F389E02DDA
:1002500080818F7D80830895EF92FF920F931F938B
:10026000CF93DF93EC0181E0888F9B8D8C8D981369
:100270001AC0E889F989808185FF15C09FB7F89475
:10028000EE89FF896083E889F989808183708064C1
:1002900080839FBF81E090E0DF91CF911F910F910C
:1002A000FF90EF900895F62E0B8D10E00F5F1F4F1B
:1002B0000F731127E02E8C8D8E110CC00FB607FC2A
:1002C000FACFE889F989808185FFF5CFCE010E94B8
:1002D0000A01F1CFEB8DEC0FFD2FF11DE35AFF4F1B
:1002E000F0829FB7F8940B8FEA89FB898081806246
:1002F000CFCFCF93DF93EC01888D8823B9F0AA8903
:10030000BB89E889F9898C9185FD03C0808186FDD0
:100310000DC00FB607FCF7CF8C9185FFF2CF80811F
:1003200085FFEDCFCE010E940A01E9CFDF91CF9189
:100330000895833081F028F4813099F08230A9F05B
:1003400008958730A9F08830C9F08430B1F48091E5
:1003500080008F7D03C0809180008F778093800024
:10036000089584B58F7784BD089584B58F7DFBCFC4
:100370008091B0008F778093B00008958091B00095
:100380008F7DF9CFCF93DF93282F30E0F901E45828
:10039000FF4F8491F901E255FF4FD491F901E656E0
:1003A000FF4FC491CC23A1F081110E949901EC2F41
:1003B000F0E0EE0FFF1FE057FF4FA591B491EC91D5
:1003C000ED2381E090E009F480E0DF91CF91089582
:1003D00080E090E0FACF1F93CF93DF93282F30E097
:1003E000F901E458FF4F8491F901E255FF4FD49190
:1003F000F901E656FF4FC491CC23A9F0162F8111C5
:100400000E949901EC2FF0E0EE0FFF1FEE58FF4F16
:10041000A591B4918FB7F894EC91111108C0D095C3
:10042000DE23DC938FBFDF91CF911F910895DE2BE8
:10043000F8CFCF93DF9390E0FC01E255FF4F24917A
:1004400086569F4FFC0184918823D1F090E0880F5D
:10045000991FFC01E859FF4FA591B491FC01EE589A
:10046000FF4FC591D49161110EC09FB7F8948C9144
:10047000E22FE0958E238C932881E223E8839FBFAF
:10048000DF91CF9108958FB7F894EC91E22BEC9324
:100490008FBFF6CF3FB7F89480911B0190911C015C
:1004A000A0911D01B0911E0126B5A89B05C02F3F4C
:1004B00019F00196A11DB11D3FBFBA2FA92F982F8A
:1004C0008827BC01CD01620F711D811D911D42E085
:1004D000660F771F881F991F4A95D1F708958F924D
:1004E0009F92AF92BF92CF92DF92EF92FF924B0119
:1004F0005C010E944A026B017C010E944A026C1955
:100500007D098E099F09683E734081059105A8F316
:1005100021E0821A9108A108B10888EEC80E83E094
:10052000D81EE11CF11C81149104A104B10429F727
:10053000FF90EF90DF90CF90BF90AF909F908F9003
:10054000089560E085E00E94EB0164E670E080E0E1
:1005500090E00E946F0260E084E00C94EB018F92C7
:100560009F92AF92BF920F931F93CF93DF93CDB71C
:10057000DEB7A1970FB6F894DEBF0FBECDBF19A2AC
:10058000423008F44AE08E010F5D1F4F842E912CFB
:10059000B12CA12CA50194010E94BD06E62FB90142
:1005A000CA01EA3044F5E05DD801EE938D01232BBA
:1005B000242B252B79F790E080E0109769F0FD015E
:1005C00001900020E9F73197AF014A1B5B0BBD0199
:1005D0008FE191E00E948C00A1960FB6F894DEBFE7
:1005E0000FBECDBFDF91CF911F910F91BF90AF9004
:1005F0009F908F900895E95CD7CF1F920F920FB60E
:100600000F9211242F933F934F935F936F937F9398
:100610008F939F93AF93BF93EF93FF938FE191E0FD
:100620000E940A01FF91EF91BF91AF919F918F912D
:100630007F916F915F914F913F912F910F900FBEDE
:100640000F901F9018951F920F920FB60F921124C2
:100650002F938F939F93EF93FF93E0912F01F0914E
:1006600030018081E0913501F091360182FD1BC09F
:100670009081809138018F5F8F73209139018217AB
:1006800041F0E0913801F0E0E15EFE4F958F8093FC
:100690003801FF91EF919F918F912F910F900FBE95
:1006A0000F901F9018958081F4CF1F920F920FB674
:1006B0000F9211242F933F938F939F93AF93BF93E8
:1006C0008091170190911801A0911901B0911A0120
:1006D0003091160123E0230F2D3758F50196A11D07
:1006E000B11D209316018093170190931801A093D8
:1006F0001901B0931A0180911B0190911C01A091E6
:100700001D01B0911E010196A11DB11D80931B0119
:1007100090931C01A0931D01B0931E01BF91AF9156
:100720009F918F913F912F910F900FBE0F901F902F
:10073000189526E8230F0296A11DB11DD2CFCF92A6
:10074000DF92EF92FF920F931F93E82FF92F05C0CE
:10075000015011092109310961F190819623941703
:10076000B9F305C0015011092109310911F1908136
:1007700096239413F7CFC12CD12CE12CF12C0AC075
:100780008FEFC81AD80AE80AF80A0C151D052E05BD
:100790003F0579F080818623841791F36C2D7D2DA0
:1007A0008E2D9F2D1F910F91FF90EF90DF90CF9096
:1007B000089560E070E080E090E01F910F91FF905D
:1007C000EF90DF90CF900895789484B5826084BDD7
:1007D00084B5816084BD85B5826085BD85B5816045
:1007E00085BD80916E00816080936E0010928100C3
:1007F000809181008260809381008091810081607E
:10080000809381008091800081608093800080913E
:10081000B10084608093B1008091B00081608093CA
:10082000B00080917A00846080937A0080917A0091
:10083000826080937A0080917A00816080937A0050
:1008400080917A00806880937A001092C100E091D4
:100850002F01F091300182E08083E0912B01F09133
:100860002C011082E0912D01F0912E018FEC8083FC
:1008700010923701E0913301F091340186E08083DA
:10088000E0913101F0913201808180618083E091BB
:100890003101F0913201808188608083E0913101E3
:1008A000F0913201808180688083E0913101F09184
:1008B000320180818F7D808360E086E00E94190292
:1008C00061E087E00E94190261E08AE00E9419025B
:1008D00061E082E00E94190261E083E00E94190257
:1008E00061E084E00E94190261E085E00E94190243
:1008F00060E089E00E94190260E088E00E9419022D
:1009000061E089E00E94EB0160E088E00E94EB0179
:10091000C3E0D0E093E2E92EF12C24EB222E20E07C
:10092000322E30EAC32E30E0D32E912C812C40E0C1
:10093000A42E40E0B42E60E087E00E94EB01CE01DF
:100940000197F1F761E087E00E94EB01C701019791
:10095000F1F760E087E00E94EB01F1016491F6019C
:100960008491E82FF0E0EE0FFF1FE057FF4F8591D5
:10097000949100E412E42FE030E0462F0E949F03A0
:10098000611571058105910529F06F5F7F4F8F4FCC
:100990009F4F9F700E9431062BE730E547E855E4F2
:1009A0000E9487050E94F9052B013C014AE077FE71
:1009B0000DC06DE28FE191E00E942C016627772740
:1009C000CB0164197509860997094AE00E94AF02B4
:1009D00042E050E062E171E08FE191E00E948C0022
:1009E0006AE070E080E090E00E946F0289E00E947F
:1009F000C201892BB9F5FEE04F1651046104710460
:100A00008CF588E00E94C201892B61F561E082E0EB
:100A10000E94EB0164EF71E080E090E00E946F02C1
:100A20000E94A10261E083E00E94EB0164EF71E0AB
:100A300080E090E00E946F0260E083E00E94EB01A2
:100A400062E370E080E090E00E946F02A114B104C4
:100A500009F471CF0E94F600882309F46CCF0E943C
:100A6000000069CF89E00E94C201892B49F00E94F1
:100A7000A10260E082E00E94EB01F4010995E6CF5B
:100A8000FEE04F165104610471048CF788E00E9467
:100A9000C201019761F761E084E00E94EB0164EF1D
:100AA00071E080E090E00E946F0261E085E00E94CA
:100AB000EB01CCCFEFE1F1E01382128288EE93E0FC
:100AC000A0E0B0E084839583A683B78384E091E0BF
:100AD0009183808385EC90E09587848784EC90E017
:100AE0009787868780EC90E0918B808B81EC90E0FB
:100AF000938B828B82EC90E0958B848B86EC90E0DC
:100B0000978B868B118E128E138E148E08950E94F1
:100B10009B050C9483060E947C0658F00E94750683
:100B200040F029F45F3F29F00C946C0651110C94AD
:100B3000B7060C9472060E94940668F39923B1F3E9
:100B4000552391F3951B550BBB27AA2762177307F3
:100B5000840738F09F5F5F4F220F331F441FAA1F87
:100B6000A9F335D00E2E3AF0E0E832D09150504043
:100B7000E695001CCAF72BD0FE2F29D0660F771FF1
:100B8000881FBB1F261737074807AB07B0E809F0D7
:100B9000BB0B802DBF01FF2793585F4F3AF09E3F5C
:100BA000510578F00C946C060C94B7065F3FE4F3A3
:100BB000983ED4F3869577956795B795F7959F5F9F
:100BC000C9F7880F911D9695879597F90895E1E0EB
:100BD000660F771F881FBB1F621773078407BA074A
:100BE00020F0621B730B840BBA0BEE1F88F7E095A5
:100BF00008950E9400066894B1110C94B7060895F8
:100C00000E949C0688F09F5798F0B92F9927B751FA
:100C1000B0F0E1F0660F771F881F991F1AF0BA95A0
:100C2000C9F714C0B13091F00E94B606B1E0089542
:100C30000C94B606672F782F8827B85F39F0B93F34
:100C4000CCF3869577956795B395D9F73EF4909553
:100C50008095709561957F4F8F4F9F4F0895E894D1
:100C600009C097FB3EF490958095709561957F4FF4
:100C70008F4F9F4F9923A9F0F92F96E9BB279395A2
:100C8000F695879577956795B795F111F8CFFAF4B2
:100C9000BB0F11F460FF1BC06F5F7F4F8F4F9F4FE3
:100CA00016C0882311F096E911C0772321F09EE841
:100CB000872F762F05C0662371F096E8862F70E0A7
:100CC00060E02AF09A95660F771F881FDAF7880F81
:100CD0009695879597F9089597F99F6780E870E052
:100CE00060E008959FEF80EC089500240A941616A2
:100CF000170618060906089500240A94121613060A
:100D0000140605060895092E0394000C11F4882397
:100D100052F0BB0F40F4BF2B11F460FF04C06F5FB3
:100D20007F4F8F4F9F4F089557FD9058440F551F89
:100D300059F05F3F71F04795880F97FB991F61F05D
:100D40009F3F79F087950895121613061406551FD4
:100D5000F2CF4695F1DF08C0161617061806991F40
:100D6000F1CF86957105610508940895E894BB2735
:100D700066277727CB0197F90895A1E21A2EAA1BBF
:100D8000BB1BFD010DC0AA1FBB1FEE1FFF1FA2173B
:100D9000B307E407F50720F0A21BB30BE40BF50B38
:100DA000661F771F881F991F1A9469F760957095C1
:100DB000809590959B01AC01BD01CF010895EE0F88
:0E0DC000FF1F0590F491E02D0994F894FFCFE9
:100DCE00000000002C018C00B9007901EA00C80077
:060DDE00DC000D0A00001C
:00000001FF
